{
  "contractName": "banking",
  "abi": [
    {
      "constant": false,
      "inputs": [
        {
          "name": "addharCardNo",
          "type": "string"
        },
        {
          "name": "panCardNo",
          "type": "string"
        }
      ],
      "name": "createAccount",
      "outputs": [
        {
          "name": "",
          "type": "int256"
        }
      ],
      "payable": false,
      "stateMutability": "nonpayable",
      "type": "function"
    },
    {
      "constant": false,
      "inputs": [
        {
          "name": "accountNo",
          "type": "uint256"
        }
      ],
      "name": "verfiedAccount",
      "outputs": [],
      "payable": false,
      "stateMutability": "nonpayable",
      "type": "function"
    },
    {
      "constant": false,
      "inputs": [
        {
          "name": "money",
          "type": "uint256"
        }
      ],
      "name": "depositeMoney",
      "outputs": [],
      "payable": false,
      "stateMutability": "nonpayable",
      "type": "function"
    },
    {
      "constant": false,
      "inputs": [
        {
          "name": "money",
          "type": "uint256"
        }
      ],
      "name": "withdrwalMoney",
      "outputs": [],
      "payable": false,
      "stateMutability": "nonpayable",
      "type": "function"
    }
  ],
  "bytecode": "0x60806040527fffffffffffffffffffffffffffffffffffffffffffffffffffffffffffffffff60045534801561003457600080fd5b50610618806100446000396000f3fe608060405260043610610062576000357c0100000000000000000000000000000000000000000000000000000000900463ffffffff168063192892871461006757806353f65332146101da578063aae9f25f14610215578063acae311114610250575b600080fd5b34801561007357600080fd5b506101c46004803603604081101561008a57600080fd5b81019080803590602001906401000000008111156100a757600080fd5b8201836020820111156100b957600080fd5b803590602001918460018302840111640100000000831117156100db57600080fd5b91908080601f016020809104026020016040519081016040528093929190818152602001838380828437600081840152601f19601f8201169050808301925050505050505091929192908035906020019064010000000081111561013e57600080fd5b82018360208201111561015057600080fd5b8035906020019184600183028401116401000000008311171561017257600080fd5b91908080601f016020809104026020016040519081016040528093929190818152602001838380828437600081840152601f19601f82011690508083019250505050505050919291929050505061028b565b6040518082815260200191505060405180910390f35b3480156101e657600080fd5b50610213600480360360208110156101fd57600080fd5b810190808035906020019092919050505061053e565b005b34801561022157600080fd5b5061024e6004803603602081101561023857600080fd5b8101908080359060200190929190505050610541565b005b34801561025c57600080fd5b506102896004803603602081101561027357600080fd5b8101908080359060200190929190505050610544565b005b600060608390506060839050601082511480156102a95750600a8151145b15610512576000809050600080905060008090505b6000805490508110156104005787805190602001206000828154811015156102e257fe5b9060005260206000200160405180828054600181600116156101000203166002900480156103475780601f10610325576101008083540402835291820191610347565b820191906000526020600020905b815481529060010190602001808311610333575b50509150506040518091039020141561035f57600192505b868051906020012060018281548110151561037657fe5b9060005260206000200160405180828054600181600116156101000203166002900480156103db5780601f106103b95761010080835404028352918201916103db565b820191906000526020600020905b8154815290600101906020018083116103c7575b5050915050604051809103902014156103f357600191505b80806001019150506102be565b5060001515821515148015610419575060001515811515145b15610504576001600454016004819055506000879080600181540180825580915050906001820390600052602060002001600090919290919091509080519060200190610467929190610547565b505060018690806001815401808255809150509060018203906000526020600020016000909192909190915090805190602001906104a6929190610547565b5050600260045490806001815401808255809150509060018203906000526020600020016000909192909190915055506003600090806001815401808255809150509060018203906000526020600020016000909192909190915055505b600454945050505050610538565b7fffffffffffffffffffffffffffffffffffffffffffffffffffffffffffffffff925050505b92915050565b50565b50565b50565b828054600181600116156101000203166002900490600052602060002090601f016020900481019282601f1061058857805160ff19168380011785556105b6565b828001600101855582156105b6579182015b828111156105b557825182559160200191906001019061059a565b5b5090506105c391906105c7565b5090565b6105e991905b808211156105e55760008160009055506001016105cd565b5090565b9056fea165627a7a72305820216a04e0c3b63a926543e8c4fb4e1d07c1b25c8ffa7b92558ba366c227928dbf0029",
  "source": "pragma solidity  ^0.5.0;\n\ncontract banking{\n    string [] addharCardNoArray;\n    string [] panCardNoArray;\n    int [] accountNoArray;\n    uint [] moneyArray;\n    int genAccountNos=-1;\n    function createAccount(string memory addharCardNo , string memory panCardNo) public returns(int){\n       bytes memory strBytes = bytes(addharCardNo);\n       bytes memory strBytes1 = bytes(panCardNo);\n      if (strBytes.length == 16 && strBytes1.length == 10 ){\n          bool foundAdharcard=false;\n          bool foundPanCard=false;\n          for (uint i=0; i < addharCardNoArray.length; i++) {\n           \n            if(keccak256(bytes(addharCardNoArray[i]))==keccak256(bytes(addharCardNo))){\n                foundAdharcard=true;\n            }\n            if(keccak256(bytes(panCardNoArray[i]))==keccak256(bytes(panCardNo))){\n                foundPanCard=true;\n\n                }\n               \n            \n          }\n          if (foundAdharcard== false && foundPanCard== false){\n          genAccountNos=genAccountNos+1;\n          addharCardNoArray.push(addharCardNo);\n          panCardNoArray.push(panCardNo);\n          accountNoArray.push(genAccountNos);\n          moneyArray.push(0);       \n      }  \n      return genAccountNos;\n      }\n      else{\n          return (-1);\n      }\n    }\n    function verfiedAccount (uint accountNo) public{\n        \n\n    }\n    function depositeMoney(uint money) public{\n\n    }\n    function withdrwalMoney(uint money) public{\n\n    }\n}",
  "sourcePath": "/home/puneet/truffleWorkspace/contracts/banking.sol",
  "compiler": {
    "name": "solc",
    "version": "0.5.0+commit.1d4f565a.Emscripten.clang"
  },
  "schemaVersion": "3.4.4",
  "updatedAt": "2022-01-08T14:12:26.645Z",
  "networkType": "ethereum",
  "devdoc": {
    "methods": {}
  },
  "userdoc": {
    "methods": {}
  }
}