{
  "contractName": "banking",
  "abi": [
    {
      "constant": false,
      "inputs": [
        {
          "name": "addharCardNo",
          "type": "string"
        },
        {
          "name": "panCardNo",
          "type": "string"
        }
      ],
      "name": "createAccount",
      "outputs": [
        {
          "name": "",
          "type": "int256"
        }
      ],
      "payable": false,
      "stateMutability": "nonpayable",
      "type": "function"
    },
    {
      "constant": false,
      "inputs": [
        {
          "name": "accountNo",
          "type": "uint256"
        }
      ],
      "name": "verfiedAccount",
      "outputs": [],
      "payable": false,
      "stateMutability": "nonpayable",
      "type": "function"
    },
    {
      "constant": true,
      "inputs": [],
      "name": "depositeMoney",
      "outputs": [
        {
          "name": "",
          "type": "string"
        }
      ],
      "payable": false,
      "stateMutability": "view",
      "type": "function"
    },
    {
      "constant": false,
      "inputs": [
        {
          "name": "money",
          "type": "uint256"
        }
      ],
      "name": "withdrwalMoney",
      "outputs": [],
      "payable": false,
      "stateMutability": "nonpayable",
      "type": "function"
    }
  ],
  "bytecode": "0x60806040527fffffffffffffffffffffffffffffffffffffffffffffffffffffffffffffffff60045534801561003457600080fd5b506106a7806100446000396000f3fe608060405260043610610062576000357c0100000000000000000000000000000000000000000000000000000000900463ffffffff16806319289287146100675780633f925f7a146101da57806353f653321461026a578063acae3111146102a5575b600080fd5b34801561007357600080fd5b506101c46004803603604081101561008a57600080fd5b81019080803590602001906401000000008111156100a757600080fd5b8201836020820111156100b957600080fd5b803590602001918460018302840111640100000000831117156100db57600080fd5b91908080601f016020809104026020016040519081016040528093929190818152602001838380828437600081840152601f19601f8201169050808301925050505050505091929192908035906020019064010000000081111561013e57600080fd5b82018360208201111561015057600080fd5b8035906020019184600183028401116401000000008311171561017257600080fd5b91908080601f016020809104026020016040519081016040528093929190818152602001838380828437600081840152601f19601f8201169050808301925050505050505091929192905050506102e0565b6040518082815260200191505060405180910390f35b3480156101e657600080fd5b506101ef610593565b6040518080602001828103825283818151815260200191508051906020019080838360005b8381101561022f578082015181840152602081019050610214565b50505050905090810190601f16801561025c5780820380516001836020036101000a031916815260200191505b509250505060405180910390f35b34801561027657600080fd5b506102a36004803603602081101561028d57600080fd5b81019080803590602001909291905050506105d0565b005b3480156102b157600080fd5b506102de600480360360208110156102c857600080fd5b81019080803590602001909291905050506105d3565b005b600060608390506060839050601082511480156102fe5750600a8151145b15610567576000809050600080905060008090505b60008054905081101561045557878051906020012060008281548110151561033757fe5b90600052602060002001604051808280546001816001161561010002031660029004801561039c5780601f1061037a57610100808354040283529182019161039c565b820191906000526020600020905b815481529060010190602001808311610388575b5050915050604051809103902014156103b457600192505b86805190602001206001828154811015156103cb57fe5b9060005260206000200160405180828054600181600116156101000203166002900480156104305780601f1061040e576101008083540402835291820191610430565b820191906000526020600020905b81548152906001019060200180831161041c575b50509150506040518091039020141561044857600191505b8080600101915050610313565b506000151582151514801561046e575060001515811515145b156105595760016004540160048190555060008790806001815401808255809150509060018203906000526020600020016000909192909190915090805190602001906104bc9291906105d6565b505060018690806001815401808255809150509060018203906000526020600020016000909192909190915090805190602001906104fb9291906105d6565b5050600260045490806001815401808255809150509060018203906000526020600020016000909192909190915055506003600090806001815401808255809150509060018203906000526020600020016000909192909190915055505b60045494505050505061058d565b7fffffffffffffffffffffffffffffffffffffffffffffffffffffffffffffffff925050505b92915050565b60606040805190810160405280600681526020017f50756e6565740000000000000000000000000000000000000000000000000000815250905090565b50565b50565b828054600181600116156101000203166002900490600052602060002090601f016020900481019282601f1061061757805160ff1916838001178555610645565b82800160010185558215610645579182015b82811115610644578251825591602001919060010190610629565b5b5090506106529190610656565b5090565b61067891905b8082111561067457600081600090555060010161065c565b5090565b9056fea165627a7a72305820567e445506610cd6c82602bdf8340423f8a6ba3e635bbe03da9770461726ba510029",
  "source": "pragma solidity  ^0.5.0;\n\ncontract banking{\n    string [] addharCardNoArray;\n    string [] panCardNoArray;\n    int [] accountNoArray;\n    uint [] moneyArray;\n    int genAccountNos=-1;\n    function createAccount(string memory addharCardNo , string memory panCardNo) public returns(int){\n       bytes memory strBytes = bytes(addharCardNo);\n       bytes memory strBytes1 = bytes(panCardNo);\n      if (strBytes.length == 16 && strBytes1.length == 10 ){\n          bool foundAdharcard=false;\n          bool foundPanCard=false;\n          for (uint i=0; i < addharCardNoArray.length; i++) {\n           \n            if(keccak256(bytes(addharCardNoArray[i]))==keccak256(bytes(addharCardNo))){\n                foundAdharcard=true;\n            }\n            if(keccak256(bytes(panCardNoArray[i]))==keccak256(bytes(panCardNo))){\n                foundPanCard=true;\n\n                }\n               \n            \n          }\n          if (foundAdharcard== false && foundPanCard== false){\n          genAccountNos=genAccountNos+1;\n          addharCardNoArray.push(addharCardNo);\n          panCardNoArray.push(panCardNo);\n          accountNoArray.push(genAccountNos);\n          moneyArray.push(0);       \n      }  \n      return genAccountNos;\n      }\n      else{\n          return (-1);\n      }\n    }\n    function verfiedAccount (uint accountNo) public{\n        \n\n    }\n    function depositeMoney() public view returns(string memory){\n        return \"Puneet\";\n    }\n    function withdrwalMoney(uint money) public{\n\n    }\n}",
  "sourcePath": "/home/puneet/truffleWorkspace/contracts/banking.sol",
  "compiler": {
    "name": "solc",
    "version": "0.5.0+commit.1d4f565a.Emscripten.clang"
  },
  "schemaVersion": "3.4.4",
  "updatedAt": "2022-01-09T10:02:13.345Z",
  "networkType": "ethereum",
  "devdoc": {
    "methods": {}
  },
  "userdoc": {
    "methods": {}
  }
}